:100000000C9437000C945F000C945F000C945F001C
:100010000C949C060C945F000C945F000C945F00A1
:100020000C945F000C945F000C945F000C94CB0662
:100030000C945F000C945F000C945F000C945F00C4
:100040000C945F000C945F000C947D050C94B0053B
:100050000C945F000C945F000C945F000C945F00A4
:100060000C94FF080C945F00CD048D06A20A1124A5
:100070001FBECFEFD8E0DEBFCDBF12E0A0E0B1E001
:10008000EEE8F9E102C005900D92A030B107D9F772
:1000900024E0A0E0B2E001C01D92A630B207E1F773
:1000A00010E0C7E3D0E004C02197FE010E94BF0C1E
:1000B000C433D107C9F70E94AB040C94A60A0C9470
:1000C0000000EF92FF920F931F93CF93DF93CDB772
:1000D000DEB760970FB6F894DEBF0FBECDBF68E6FF
:1000E00080910202909103020E942C0A80910202E8
:1000F00090910302DC01ED91FC910190F081E02DE3
:100100006BE3099560E080910202909103020E94E6
:100110003C0A21E048E068E68091020290910302E7
:100120000E94E1098E01075F1F4F7E01B1E1EB0ED6
:10013000F11C8091020290910302DC01ED91FC918F
:100140000680F781E02D0995F80181938F01EE1566
:10015000FF0579F729853A853227232732273A8305
:1001600029834B855C855427452754275C834B8323
:10017000ED85FE85FE27EF27FE27FE83ED838F8525
:10018000988998278927982784589F4C64E571E0BF
:100190000E946E0C862F78873A815C816E2F7E815B
:1001A000988560960FB6F894DEBF0FBECDBFDF9185
:1001B000CF911F910F91FF90EF900895FC0186B1B0
:1001C000248194812827237081F0A281B3819695A0
:1001D0009827D0962D913C91D19790FD08C0215041
:1001E0003109D1963C932E93D097848308952F5F45
:1001F0003F4FF7CF2FB7F894FC0182A993A92FBFE7
:1002000008952FB7F894FC01658976898789908DC8
:100210002FBF08956230710571F124F561157105E4
:1002200069F16130710539F16230710530F0643087
:10023000710519F06730710541F417BC84B58F73EF
:1002400084BD18BC84B58F7C84BDCB010597029713
:10025000C8F447BD84B5806884BD18BC84B580628D
:1002600084BD08956530710531F06730710519F06E
:1002700064307105C9F68BB1806602C08BB18F798D
:100280008BB9D2CF625071096230710550F717BC3B
:1002900084B5806884BD48BDE1CF4F925F926F9274
:1002A0007F928F929F92AF92BF92CF92DF92EF9206
:1002B000FF920F931F93CF93DF93EC01AA80BB8033
:1002C0008E819F81181619060CF0CDC0F50180A90A
:1002D00091A96C817D81681B790B8E899F89998F8B
:1002E000888F8C899D899F8B8E8B7D8B6C8B0A85EB
:1002F0001B85C801880F991F4B01881A990ACC8465
:10030000DD84C80CD91C0D2C000CEE08FF08C88A2F
:10031000D98AEA8AFB8A1D870C877B876A87072E22
:10032000000C880B990B0E944C0B2BA13CA14DA1FA
:100330005EA10E94010C2B013C01C701B6010E9485
:100340004C0B2FA138A549A55AA50E94010C9B0171
:10035000AC01C301B2010E94AA0A6B017C01080D25
:10036000191DB801110F880B990B0E944C0B2F8D92
:1003700038A149A15AA10E94010C9B01AC01C701FF
:10038000B6010E94AA0A2B8D3C8D4D8D5E8D0E9478
:10039000AA0A6B017C0120E030E044E353E40E94B0
:1003A000160B87FF4FC020E030E044E353ECC70159
:1003B000B6010E94FC0B18160CF04BC0CB8EDC8EE5
:1003C000ED8EFE8E20E030E0A901C701B6010E944B
:1003D000160B87FF45C0C701B60190580E941B0B42
:1003E000162F20E030E0A901C701B6010E94160BCC
:1003F00065E070E087FF02C062E070E0412FC50158
:100400000E940A01EA81FB8180A991A993AB82AB8A
:1004100011AA10AA1F861E868E819F8101979F8335
:100420008E83DF91CF911F910F91FF90EF90DF901E
:10043000CF90BF90AF909F908F907F906F905F9084
:100440004F900895C12CD12C94E3E92E93E4F92E1A
:10045000B5CFC12CD12C84E3E82E83ECF82EAECF9F
:10046000C701B601BBCF40E065E070E0C5010E9466
:100470000A01198E188E1F8A1E8A1D8A1C8AEA811B
:10048000FB8111AA10AA1F861E861B861A861D864E
:100490001C86C7CF24E031E0FC01318320837383C5
:1004A00062831482642F0C949106DC0114961C92D2
:1004B00014971296ED91FC9111AA10AAE8E6F0E0CB
:1004C0008081826080830895E8E6F0E080818D7FFE
:1004D00080830895FC018AE091E091838083738397
:1004E0006283158214821782168211861086138603
:1004F00012861586148617861686108A118A128A25
:10050000138A138E148E158E168E178E10A211A2BA
:1005100012A213A214A215A216A217A210A611A627
:1005200012A6642FCF010C949106CF93DF93EC01B8
:1005300044E0BC010E944A024BE0BE01CE01059698
:100540000E946A0219AA18AA2B988BB18F798BB9CD
:10055000239A8AB180668AB984B5816084BD85B5E5
:10056000816085BD17BC18BCE1E8F0E080818B603C
:10057000808380E29EE49093890080938800ECE67B
:10058000F0E0808183608083DF91CF910895FC014A
:100590001386128615861486108A118A128A138A87
:1005A0001582148217821682118610861786168687
:1005B000EFE6F0E08081826080830895CF93DF933F
:1005C000EC010E945502CE0105960E94C7022B9AAB
:1005D000DF91CF910895EFE6F0E080818D7F8083F9
:1005E0000895CF93DF93EC012B9805960E94EB02C0
:1005F000CE01DF91CF910C946402DC01FB018FB737
:10060000F89454962D913C915597318320835696BA
:100610002D913C9157973383228358962D913C918D
:10062000358324838FBF089505960C94FD02FC0149
:100630008FB7F89475836483578346831186108639
:10064000118E108E178A168A158A148A17861686B6
:1006500013861286158614868FBF089505960C940E
:100660001703CF92DF92EF92FF920F931F93FC013B
:100670008FB7F89444A355A366A377A300A711A747
:1006800022A733A7C4A6D5A6E6A6F7A68FBF1F91BB
:100690000F91FF90EF90DF90CF900895A09100020E
:1006A000B0910102ED91FC9111970084F185E02D4C
:1006B000682FCD01099581E090E0089580910002B6
:1006C00090910102DC01ED91FC910480F581E02D17
:1006D000099590E00895CF93DF93EC01AE96CE019B
:1006E0000E94DE024AE050E070E060E0CE01DF915F
:1006F000CF910C942E03CF93DF93CDB7DEB76A97DB
:100700000FB6F894DEBF0FBECDBF5C0124E0A20E91
:10071000B11C4C01EEE28E0E911C3C01F2E66F0E14
:10072000711CC5010E94EB07C5010E940C070497CC
:10073000C1F7C5010E943707FC0180819181A28128
:10074000B3818F8B988FA98FBA8FCE0147960E9465
:10075000FA06833109F4CBC0C0F4803109F47EC0BD
:10076000813109F492C08111DCCFCE0147960E94FD
:1007700005078111D6CF19821A821B821C8224E0C0
:10078000AE014F5F5F4F60E0AEC0863109F4C5C077
:1007900060F5843131F6CE0147960E9405078C3012
:1007A00009F0BFCFCE0147960E940807FC01608187
:1007B0007181828193810E94A40C1B012C016481B0
:1007C0007581868197810E94A40C8B019C016085B4
:1007D0007185828593850E94A40C6B017C01B20116
:1007E000A101C4010E9431039CCF873109F467C085
:1007F000803209F096CFCE0147960E9405078111FD
:1008000090CFC3010E94610029873A874B875C879C
:100810006D877E878F87988B4B855C85542745270E
:1008200054272D853E853227232732278F859889A7
:1008300098278927982769857A85762767277627D5
:100840007A8369835C834B833E832D8398878F8370
:1008500028E0AE014F5F5F4F60E245C0CE01479692
:100860000E940507813009F05CCFCE0147960E94B7
:100870000807FC018081811104C0C4010E94F102BB
:1008800050CFC4010E94DE024CCFCE0147960E9499
:100890000507843009F045CFCE0147960E9408072E
:1008A000FC0142815381542745275427608171817F
:1008B000762767277627C4010E942E0332CFCE0108
:1008C00047960E94050781112CCFC4010E940101A7
:1008D0000E94A40C69837A838B839C8324E0AE01FD
:1008E0004F5F5F4F67E1C5010E9456071ACFCE01E7
:1008F00047960E940507811114CFC4010E94FA0097
:100900009827892798279A8389839C838B8324E05F
:10091000AE014F5F5F4F63E1E6CFCE0147960E9485
:1009200005078111FECEBE016F5E7F4FC4010E949C
:10093000140349895A892B893C898D899E89598359
:100940004A833B832C839D838E8326E0AE014F5FD9
:100950005F4F66E1C8CFCDB7DEB72E970FB6F894DC
:10096000DEBF0FBECDBF8EE493E09A8789878EE508
:1009700093E09C878B8783E08C831E861D86CE0147
:100980000196909364028093630280E092E00E945B
:100990006B0380E092E00E947B03E0E0F2E08DEEEA
:1009A00092E0918380832EE733E0338322831582A4
:1009B0001482168217822FEF20A711A613A612A663
:1009C00095A784A78EE292E00E94950278940895FC
:1009D000FC0122813381F901E05CFF4F808191812C
:1009E0002E5B3F4FF90120813181805C9F4F821B3C
:1009F000930B60E470E00E946E0C0895FC0182810C
:100A00009381FC01E05CFF4F40815181329620814F
:100A100031814217530741F020813181820F931FAA
:100A2000FC01808190E008958FEF9FEF0895DC0135
:100A300012968D919C91FC01E05CFF4F40815181A9
:100A40003296208131814217530779F0208131811C
:100A5000820F931FDC018C91208131812F5F3F4FEA
:100A60002F7333273183208308958FEF0895FC017E
:100A70009789992329F0A285B3858C9186FFF9CFB8
:100A8000178A0895CF93DF93FC0124813581D90122
:100A9000A05CBF4F8D919C91119701968F73992700
:100AA000E901CE5BDF4F4881598148175907D9F3D7
:100AB0004D915C91240F351FD9016C93A481B581B0
:100AC000A05CBF4F11969C938E93A485B5858C91A5
:100AD000958921E030E001C0220F9A95EAF7822B38
:100AE0008C9381E0878B0284F385E02D8081806484
:100AF000808381E0DF91CF9108952F932FB72F93BB
:100B00003F938F939F93EF93FF938091C00082FD5B
:100B100024C08091E9029091EA0201968F7399278F
:100B20002091EB023091EC022817390769F0E0912F
:100B3000E902F091EA022091C600E755FD4F2083BB
:100B40009093EA028093E902FF91EF919F918F9138
:100B50003F912F912FBF2F9118958091C600F4CF10
:100B60002F932FB72F933F938F939F93EF93FF93E1
:100B70002091A5023091A6028091A7029091A8022F
:100B80002817390771F48091C1008F7D8093C100CF
:100B9000FF91EF919F918F913F912F912FBF2F91B7
:100BA0001895E091A702F091A802EB59FD4F208122
:100BB0008091A7029091A80201968F739927909334
:100BC000A8028093A7022093C600E2CFCF92DF92C3
:100BD000EF92FF92CF93DF93EC016A017B01EA85EC
:100BE000FB852E8981E090E001C0880F2A95EAF705
:100BF000808360E079E08DE390E0A70196010E9498
:100C0000820C215031094109510956954795379574
:100C10002795211560E1360798F0EA85FB8510825B
:100C200060E874E88EE190E0A70196010E94820CD2
:100C30002150310941095109569547953795279516
:100C4000EE81FF813083E885F98520831F8AEC855A
:100C5000FD8540812A8981E090E0BC0102C0660FD9
:100C6000771F2A95E2F79B013B89BC0101C0660F03
:100C70003A95EAF7262B242B3C89AC0101C0440F9E
:100C80003A95EAF7242B2083EC85FD8520813D8968
:100C900001C0880F3A95EAF7809582238083DF911F
:100CA000CF91FF90EF90DF90CF900895FC0180E10D
:100CB00091E09183808389EA92E09383828385E641
:100CC00092E09583848385EC90E09783868384EC1F
:100CD00090E09187808780EC90E093878287A1ECF9
:100CE000B0E0B587A48782EC90E09787868786EC92
:100CF00090E0918B808B84E0828B83E0838B87E014
:100D0000848B85E0858B81E0868B1C9240E855E2E0
:100D100060E070E0CF010C94E6058DEE92E00C945B
:100D20005606262F2150330BF901EE0FFF1FEB5F04
:100D3000FC4F9183808308951F920F920FB60F92FC
:100D400011242F933F934F935F936F937F938F93D0
:100D50009F93AF93BF93EF93FF9380910B03909179
:100D60000C03009739F0DC01ED91FC910190F081CA
:100D7000E02D0995FF91EF91BF91AF919F918F91D8
:100D80007F916F915F914F913F912F910F900FBE87
:100D90000F901F9018951F920F920FB60F9211246B
:100DA0002F933F934F935F936F937F938F939F9373
:100DB000AF93BF93EF93FF938091190390911A0320
:100DC000009739F0DC01ED91FC910190F081E02D6C
:100DD0000995FF91EF91BF91AF919F918F917F9175
:100DE0006F915F914F913F912F910F900FBE0F9098
:100DF0001F901895DC01EC91E53D28F4F0E0E65EEB
:100E0000FE4F808108958FEF0895FC018181089540
:100E1000FC01828193810895FC0180819181089574
:100E2000FC012381DC01159681E090E0482F8217B8
:100E300030F0241B23831282118210820895BC019A
:100E40003D910196303F91F7342F832F90E0DF01E1
:100E5000A80FB91F14965C91861B970BDF01A80F92
:100E6000B91F14965C933F5F321778F3E2CF8496F4
:100E70000895FB018381242F30E0482F50E0CA0100
:100E800003964C5F5F4F821793070CF0A90192E025
:100E900080E0292F30E0241735073CF4260F371F58
:100EA000F9012081820F9F5FF4CF0895AF92BF9226
:100EB000CF92DF92EF92FF920F931F93CF93DF9326
:100EC000CDB7DEB7A0970FB6F894DEBF0FBECDBF8B
:100ED0005C01122F2A3108F049C080EF89838AEC27
:100EE0008A836B832C83FA0184E0841B30E02D5FBE
:100EF0003F4FAE014F5F5F4F6A01E82EEE0EF12CBF
:100F00002E153F0534F09191D601AE0DBF1D9C9377
:100F1000F4CF40E2B601C5010E943907F601EE0D9B
:100F2000FF1D8083E5E0E10FEC0DFD2DF11D83E554
:100F3000808307E0010FE6E0E10FEC0DFD2DF11DD0
:100F40008FE0808376018E2D8C19801778F4D5017F
:100F500098968D919C91F70161917F01DC01ED9153
:100F6000FC910084F185E02D0995EDCFA0960FB698
:100F7000F894DEBF0FBECDBFDF91CF911F910F91CF
:100F8000FF90EF90DF90CF90BF90AF900895EF92D9
:100F9000FF921F93CF93DF93EC017B01142F40E26C
:100FA0000E943907F701E10FF11D339790819813E3
:100FB0000CC084E090E0998388838F819E819CA3FC
:100FC0008DA3CE0108969FA38EA3DF91CF911F9191
:100FD000FF90EF900895AF92BF92CF92DF92EF9281
:100FE000FF920F931F93CF93DF93EC018881998138
:100FF000049719F4CE010E94100782E0E82EF12C2C
:1010000093E0C92ED12C8E010C5F1F4FAA24A3940C
:10101000B12C88819981049709F471C09A818B81E0
:101020009817B0F4FE01E90FF11D84819F5F9A8348
:10103000288139812130310509F449C054F5232B29
:1010400041F7803F09F440C0CE010E941007E1CF74
:1010500088A599A5DC01ED91FC910190F081E02D2E
:101060000995892B09F44BC088A599A5DC01ED9160
:10107000FC910480F581E02D0995EA8191E09E0FB5
:101080009A83EC0FFD2FF11D84839B819F5F9B83CF
:10109000CFCF2230310509F12330310509F0B9CF26
:1010A0004A81443008F4B5CF2F8130E0295F3F4FAB
:1010B0004217130609F0ADCF8F3009F0AACFB8015F
:1010C000CE010E94C707A5CFB982A882A2CF8A3CD1
:1010D00009F0BACFF982E8829CCF9A81943008F463
:1010E00098CF2F8130E02A5F3F4F9217130609F007
:1010F00090CF833509F0A8CFD982C8828ACFDF91FB
:10110000CF911F910F91FF90EF90DF90CF90BF9004
:10111000AF900895CF92DF92EF92FF921F93CF93FB
:10112000DF937C01142FEB016B01C40ED11CCC1595
:10113000DD0551F06991D701ED91FC910190F081AD
:10114000E02DC7010995F3CF812FDF91CF911F913A
:10115000FF90EF90DF90CF900895FC01ED5BFF4F83
:1011600020818E5B9F4FFC018081281B330B81E027
:10117000121613060CF080E008959C01FC01EE5B52
:10118000FF4F9081D901AD5BBF4F8C91981740F410
:10119000290F311DD90112968C919F5F908308957C
:1011A0008FEF0895FC01EE5BFF4FE081DC01AD5B4A
:1011B000BF4F2C91E21728F4E80FF92FF11D82811F
:1011C00008958FEF08950895CF93DF93DC01AA5718
:1011D000BF4F2C91203488F4EC01CB57DF4F28818E
:1011E000820F911DFC01EB5BFF4F60832F5F288313
:1011F0002C9381E0DF91CF91089580E0FBCF1F9287
:101200001FB61F9211248F939F93EF93FF938091AA
:10121000B900887F883209F446C0F0F48031D9F1F2
:1012200068F4882309F49BC08830A9F1FF91EF91FD
:101230009F918F911F901FBE1F901895883199F133
:101240008032A1F78093370385ED8093BC008091B5
:10125000BC0084FF45C0FBCF803409F45AC058F469
:10126000803309F440C0883309F78093370385EC55
:101270008093BC0035C0803509F43FC0883509F43F
:1012800051C0883499F685ED8093BC008091BC00F4
:1012900084FF26C0FBCF80917C038093BB0085EC4C
:1012A0008093BC00C3CF9091390380913803981785
:1012B00058F4E091390381E08E0F80933903F0E018
:1012C000E65CFC4F8081E9CF80917B03882309F4A1
:1012D00041C085ED8093BC008091BC0084FDFCCFB3
:1012E00010927D03A3CF8093370385ED8093BC00DC
:1012F0008091BC0084FFF4CFFBCFE091390381E003
:101300008E0F809339038091BB00F0E0E65CFC4FC8
:1013100080839091390380913803981708F4BFCFE8
:1013200085E8BECFE091390381E08E0F80933903C9
:101330008091BB00F0E0E65CFC4F808380917B03F2
:10134000882341F085ED8093BC008091BC0084FF30
:10135000C7CFFBCF81E080937A0384EA89CF1092D4
:10136000370385ED8093BC008091BC0084FFB8CF2B
:10137000FBCF23EF31E0FC0131832083EE5BFF4F95
:1013800010823196108231961082EF5BFF4F1082EF
:101390003196108289579F4FFC01108210927D0375
:1013A00081E080937B0310927A03E9EBF0E0808187
:1013B0008C7F808388E48093B80085E48093BC00B0
:1013C0000895413408F040E430917D033111FCCFA1
:1013D00031E030937D0320937B032FEF209337037D
:1013E00010923903240F2093380330937C0320910B
:1013F0007C03660F622B60937C0320917A03222387
:10140000F9F010927A0320917C032093BB0025EC25
:101410002093BC0020917D032130E1F3209139031A
:10142000241710F4409139036AE373E0DC0112964B
:10143000FB012E2F261B241728F421912D93F9CF81
:1014400025EEE6CFFC01EE5BFF4F10828D5B9F4FD8
:10145000FC014083842F0895FC01E957FF4F21E0F0
:101460002083E354F1096083EF5BFF4F10828A57BA
:101470009F4FFC0110820895CF93DF93DC01AA57A0
:10148000BF4F2C91213408F055C030917D033111AC
:10149000FCCF32E030937D0360937B033FEF3093CA
:1014A00037031092390320933803EC01CB5BDF4FF5
:1014B0004AE353E0FA013E2F341B321718F43991F6
:1014C0003193F9CF10927C0330917C03FC01EC5BEB
:1014D000FF4F2081220F232B20937C0320917A033E
:1014E000222331F110927A0320917C032093BB00D8
:1014F00025EC2093BC0020917D032230E1F3FC0118
:10150000EB57FF4F10821C9289579F4FFC011082AE
:10151000809137038F3F81F080913703803271F0E3
:1015200080913703803361F483E0DF91CF91089598
:1015300025EEDFCF81E0F9CF80E0F7CF82E0F5CF75
:1015400084E0F3CF8EE793E00C94B909F8940C94FF
:10155000C50C5058BB27AA270E94C10A0C94C20B85
:101560000E94B40B38F00E94BB0B20F039F49F3F6F
:1015700019F426F40C94B10B0EF4E095E7FB0C94EF
:10158000AB0BE92F0E94D30B58F3BA17620773070E
:101590008407950720F079F4A6F50C94F50B0EF46A
:1015A000E0950B2EBA2FA02D0B01B90190010C0173
:1015B000CA01A0011124FF27591B99F0593F50F48B
:1015C000503E68F11A16F040A22F232F342F4427E3
:1015D000585FF3CF469537952795A795F0405395DB
:1015E000C9F77EF41F16BA0B620B730B840BBAF0AB
:1015F0009150A1F0FF0FBB1F661F771F881FC2F716
:101600000EC0BA0F621F731F841F48F48795779529
:101610006795B795F7959E3F08F0B0CF9395880FE3
:1016200008F09927EE0F9795879508950E94870BEC
:1016300008F481E008950E94DB0B88F09F5798F032
:10164000B92F9927B751B0F0E1F0660F771F881FC7
:10165000991F1AF0BA95C9F714C0B13091F00E94E1
:10166000F50BB1E008950C94F50B672F782F8827C0
:10167000B85F39F0B93FCCF3869577956795B39508
:10168000D9F73EF490958095709561957F4F8F4F77
:101690009F4F0895E89409C097FB3EF4909580957C
:1016A000709561957F4F8F4F9F4F9923A9F0F92F28
:1016B00096E9BB279395F695879577956795B795A6
:1016C000F111F8CFFAF4BB0F11F460FF1BC06F5F8C
:1016D0007F4F8F4F9F4F16C0882311F096E911C09E
:1016E000772321F09EE8872F762F05C0662371F0BF
:1016F00096E8862F70E060E02AF09A95660F771FD3
:10170000881FDAF7880F9695879597F90895990FAE
:101710000008550FAA0BE0E8FEEF16161706E807BB
:10172000F907C0F012161306E407F50798F0621BDC
:10173000730B840B950B39F40A2661F0232B242BB1
:10174000252B21F408950A2609F4A140A6958FEFD0
:10175000811D811D089597F99F6780E870E060E022
:1017600008959FEF80EC089500240A94161617063A
:1017700018060906089500240A9412161306140682
:1017800005060895092E0394000C11F4882352F0E5
:10179000BB0F40F4BF2B11F460FF04C06F5F7F4F9D
:1017A0008F4F9F4F089557FD9058440F551F59F084
:1017B0005F3F71F04795880F97FB991F61F09F3F3E
:1017C00079F087950895121613061406551FF2CF67
:1017D0004695F1DF08C0161617061806991FF1CFB7
:1017E00086957105610508940895E894BB276627DE
:1017F0007727CB0197F908950E94870B08F48FEFA4
:1018000008950E94140C0C94C20B0E94B40B38F083
:101810000E94BB0B20F0952311F00C94AB0B0C94A1
:10182000B10B11240C94F60B0E94D30B70F3959F0F
:10183000C1F3950F50E0551F629FF001729FBB27C7
:10184000F00DB11D639FAA27F00DB11DAA1F649F63
:101850006627B00DA11D661F829F2227B00DA11D16
:10186000621F739FB00DA11D621F839FA00D611D9C
:10187000221F749F3327A00D611D231F849F600DBD
:10188000211D822F762F6A2F11249F5750409AF0E6
:10189000F1F088234AF0EE0FFF1FBB1F661F771F72
:1018A000881F91505040A9F79E3F510580F00C943D
:1018B000AB0B0C94F60B5F3FE4F3983ED4F38695A4
:1018C00077956795B795F795E7959F5FC1F7FE2BDD
:1018D000880F911D9695879597F9089597FB072E88
:1018E00016F4009407D077FD09D00E94AB0C07FCDA
:1018F00005D03EF4909581959F4F08957095619520
:101900007F4F0895A1E21A2EAA1BBB1BFD010DC03B
:10191000AA1FBB1FEE1FFF1FA217B307E407F5079F
:1019200020F0A21BB30BE40BF50B661F771F881F7B
:10193000991F1A9469F760957095809590959B0111
:10194000AC01BD01CF010895692796276927782743
:10195000872778270895AA1BBB1B51E107C0AA1F40
:10196000BB1FA617B70710F0A61BB70B881F991F40
:101970005A95A9F780959095BC01CD010895EE0F79
:0E198000FF1F0590F491E02D0994F894FFCF1D
:10198E0000000000DE00000000004D01000000001D
:10199E00E804FE041705370542050001FFFFFFFFAF
:1019AE00FFFFFFFFFFFFFFFFFFFF1011FF131415D7
:1019BE001617FFFFFFFFFFFFFFFFFFFFFFFFFFFFFA
:1019CE00FFFFFFFFFFFFFFFFFFFFFFFFFFFFFFFF19
:1019DE00FFFFFF39FFFFFFFFFFFF4041424344453A
:1019EE00FFFFFFFFFFFFFFFFFFFFFFFFFFFFFFFFF9
:1019FE00FFFFFFFFFFFFFFFFFFFF60FFFFFFFFFF88
:101A0E00FFFFFFFFFFFFFFFFFFFF70717273747523
:101A1E0076FFFFFFFFFFFFFFFFFF808182FFFFFFCB
:101A2E00FFFFFFFFFFFFFFFFFFFF9091FFFFFFFF95
:101A3E00FFFFFFFFFFFFFFFFFFFFA0A1FFFFFFFF65
:101A4E00FFFFFFFFFFFFFFFFFFFFFFFFFFFFFFFF98
:101A5E00FFFFFFFFFFFFFFFFFFFFC0C1C2C3C4FFB9
:101A6E00FFFFFFFFFFFFFFFFFFFFD0D1D2D3D40058
:101A7E00000000E4088A08AD08BD08D208E308009B
:00000001FF
